:060000000A128A110C280F
:10000800FE00030EF0000A08F1000A128A111528F2
:100018000A128A110F28F501F60183010A128A11C2
:1000280058280B1C1828192832288312031306187D
:100038001E281F2827280130F5070318F60A003064
:10004800F6070B10322886182A282B283228FF306A
:10005800F5070318F60AFF30F607252871088A0005
:10006800700E8300FE0E7E0E09008316031305082A
:100078001138850083160317080811388800831281
:1000880003139F131F17831603139F121F129F1327
:10009800831203139F161F169F111F151F1421305B
:1000A800F200F20B552808000A128A1173200A126E
:1000B8008A110A128A1139200A128A1175088312C4
:1000C800031388000D30F400FB30F300F30B6A28AB
:1000D800F40B6A286F2862280A128A110C288316E2
:1000E80003178901073083160313860088018312DA
:1000F800031385018601870188018B150B108B1767
:10010800831603131514951415151614961416153D
:040118008113080047
:08400000FF3FFF3FFF3FFF3FC0
:04400E00D420FF3F7C
:00000001FF
