:060000000A128A110C280F
:10000800FE00030EF2000A08F3000A128A11EE2815
:100018000A128A110F2883133030FD000130FE00C8
:100028009830FF00203084000A128A1189210A12B0
:100038008A11BA01BB01BC01BD01F501F601F70146
:10004800F80183010A128A11922883120313B50159
:10005800B11F2F2830283728B009B109B00A031971
:10006800B10AB501B50AB31F3A283B284428B2099A
:10007800B309B20A0319B30A0130F4007408B506CB
:10008800B601B7013008310403194B284C288328DE
:10009800B401B40A5A2801300310B00DB10DFF3E67
:1000A800031D50280130F4007408B407B11F5D28FF
:1000B8005E284F2801300310B60DB70DFF3E031D13
:1000C8005F2831083302031D6B2830083202031CF5
:1000D8006E286F2876283008B2023108031CB30353
:1000E800B302361401300310B10CB00CFF3E031DEF
:1000F80077280130B402031D822883285E2835083A
:100108000319872888288D28B609B709B60A03195C
:10011800B70A3708B1003608B00008000A128A1179
:1001280066210A128A110A128A1146210A128A11B4
:10013800831203139F149F18A228A3289F280C1327
:100148001E080F39B800B9013808F5003908F6005B
:100158001030B0000030B1001E08B800B9013808EE
:10016800B2003908B3000A128A1129200A128A112A
:10017800831203133108F8003008F7007508203E91
:100188008400831300088500871407100730831242
:100198000313B9007C30B800B80BD028B90BD028AD
:1001A80000007708203E840083130008831203139D
:1001B800850087100714073083120313B9007C30B9
:1001C800B800B80BE528B90BE52800009C280A12EE
:1001D8008A110C280B1CF128F2283F2983120313DB
:1001E8000618F728F8280C292730F100F530F00018
:1001F800F00BFC28F10BFC2883120313061C0529BD
:1002080006293F290130F000700888070B103F29A4
:1002180086180F29102922292730F100F530F0001F
:10022800F00B1429F10B142983120313861C1D29C2
:100238001E293F29013088020B103F29061925295C
:1002480026293F292730F100F530F000F00B2A2944
:10025800F10B2A2983120313061D332934293F2958
:100268001E080802031839293A293C2986153D2910
:1002780086110B103F2973088A00720E8300FE0E48
:100288007E0E090083160317890183160313891448
:1002980083160317081740308800831203139F132F
:1002A8001F17831603139F121F129F138312031322
:1002B8009F121F169F151F111F142130F400F40BF5
:1002C8006329080083160317081789010730831666
:1002D80003138600850187018801831203138501B2
:1002E80086018701880189018B150B108B178316EE
:1002F8000313151495141515161496141615811351
:1003080008007E088A007F0882000A128A11852167
:100318000A128A118000840A04087D060319003431
:10032800FF0A0319FE0A89293F3406345B344F3427
:1003380066346D347D3407347F346F3477347C34DD
:0803480039345E34793471345C
:08400000FF3FFF3FFF3FFF3FC0
:04400E00D420FF3F7C
:00000001FF
